:1000000000308A00812800000A108A100A11820735
:100010003E343E343E343E343E343E343E343E3450
:100020003E343E34413446344D34503457345E34DB
:1000300062345D345C3455344C3443343C343B34AA
:100040003B343B343B343B343B343B343B3439343A
:100050003234283420341E3433345F340234FC34D8
:10006000E734C6349D3473344B342A3413340A34A1
:1000700035343B343B343B343B343B343B343B340E
:100080003B343B343B343B343D3442344B345434C6
:100090005E3466346B346D346F3468346134583494
:1000A0004E3445343C343C343C343C343C343C34B5
:1000B0003C343C343C343C343C343C343C343C34C0
:1000C0003C343C343C343C343C343C343C343C34B0
:1000D0003C343A34383436342130840083130008F9
:1000E000031980280130F800F701F70B7528F80B89
:1000F00074284A30F700F70B7B287E28800B722883
:10010000080003081F39830083161F149F141F154E
:100110009F1107309C00831385148312851CAF2820
:10012000A0012008633C031CAE2820080420A10085
:10013000831686018312210886000230A1006C20FC
:1001400083160810831208148316881083128810EF
:100150008316081183120811A00A9128A0018316A2
:1001600005158312051DD328A0012008633C031C3C
:10017000D22820080420A1008316860183122108BA
:1001800086000430A1006C20831688108312881426
:1001900083160810831208108316081183120811A1
:1001A000A00AB528A001831685158312851DF7289E
:1001B000A0012008633C031CF62820080420A100AD
:1001C000831686018312210886000130A1006C206D
:1001D000831608118312081583168810831288105D
:1001E0008316081083120810A00AD928A0018316CC
:0401F0008C286300F4
:02400E00733FFE
:00000001FF
;PIC16F877A
;CRC=193E  CREATED="15-ago-20 11:29"
